:020000040800F2
:100000009006002091010008990100089B0100085A
:100010009D0100089F010008A101000800000000E8
:10002000000000000000000000000000A301000824
:10003000A501000800000000A70100084109000810
:10004000AB010008AB010008AB010008AB010008E0
:10005000AB010008AB010008AB010008AB010008D0
:10006000AB010008AB010008AB010008AB010008C0
:10007000AB010008AB010008AB010008AB010008B0
:10008000AB010008AB010008AB010008AB010008A0
:10009000AB010008AB010008AB010008AB01000890
:1000A000AB010008AB010008AB010008AB01000880
:1000B000AB010008AB010008AB010008AB01000870
:1000C000AB010008AB010008AB010008AB01000860
:1000D000D5060008AB010008AB010008AB01000821
:1000E000AB010008AB010008AB01000800F002F80A
:1000F00000F03FF80AA090E8000C82448344AAF183
:100100000107DA4501D100F034F8AFF2090EBAE880
:100110000F0013F0010F18BFFB1A43F0010318473B
:10012000AC090000CC090000103A24BF78C878C19F
:10013000FAD8520724BF30C830C144BF04680C60ED
:10014000704700000023002400250026103A28BF35
:1001500078C1FBD8520728BF30C148BF0B60704739
:10016000642900F07D80002070471FB51FBD10B5C9
:1001700010BD00F02AF91146FFF7F7FF00F06EFC02
:1001800000F048F903B4FFF7F2FF03BC00F050F9A8
:100190000948804709480047FEE7FEE7FEE7FEE71B
:1001A000FEE7FEE7FEE7FEE7FEE7FEE70448054957
:1001B000054A064B70470000FD090008ED000008E5
:1001C0009000002090060020900200209002002065
:1001D0000FB41CB5074B06AA7B44694600900598EE
:1001E00000F0DBF80020694600F0EAF81CBC5DF87E
:1001F00014FB0000E50100002DE9F0410E46044625
:10020000002020622046E168884730B3252805D0C9
:10021000D4E901219047206A401CF2E7E1682046BA
:1002200000278847050018D0A5F14100192802D8F9
:1002300020354FF400673246294620462760FFF7F5
:100240008FFF40B1012804D0F61D26F007060836BE
:10025000D8E7361DD6E72846DAE7206ABDE8F08100
:100260002DE9F0410646002410687529314616A58F
:1002700010D0AFF30080002802DA404213A507E057
:1002800031688A0701D512A502E0490704D511A5F6
:10029000012401E0AFF3008000210A2206F12407C7
:1002A00009E0B0FBF2FCB0FBF2F302FB1C003030C3
:1002B00078541846491C0028F3D123462A46304674
:1002C000BDE8F04100F00BB8000000002D00000078
:1002D0002B000000200000007047704770472DE998
:1002E000F0470D4699469246044600F124080168FD
:1002F000880604D5E06921F01001216000E00120AA
:10030000A84201DD471B00E00027A1697A1902EB32
:100310000900081AA0612078C00602D42046AFF375
:100320000080002608E0D4E901211AF80600904771
:10033000206A401C761C20624E45F4DB2078C00603
:100340000AD52046AFF3008006E0D4E90121302031
:100350009047206A401C2062381EA7F10107F4DC98
:1003600007E0D4E9012118F805009047206A401CF5
:100370002062281EA5F10105F3DC2046AFF30080C2
:100380002078000602D50220BDE8F0870120FBE7B7
:1003900001694A1C02610878704700B58FB0CDE949
:1003A00001310021059105497944CDE90310114639
:1003B0006846FFF721FF0FB000BD0000E5FFFFFF1B
:1003C0000A6802F8010B0A607047754600F02CF8C5
:1003D000AE4605006946534620F00700854618B032
:1003E00020B5FFF7E3FEBDE820404FF000064FF0D8
:1003F00000074FF000084FF0000B21F00701AC465A
:10040000ACE8C009ACE8C009ACE8C009ACE8C00978
:100410008D46704710B50446AFF300802046BDE816
:100420001040FFF7AFBE0000004870472C000020CE
:1004300001491820ABBEFEE726000200704700000D
:1004400070B500F089FA13480068134AB0FBF2F166
:10045000481EB0F1807F00D31BE0481E4FF0E02221
:10046000506150170F22002804DB13071C0E0B4BA2
:100470001C5406E013071D0E094B00F00F04241F47
:100480001D5500BF00204FF0E02290610720106151
:1004900000BF70BD1800002040420F0000E400E0E3
:1004A00018ED00E000B5024603E04FF47A7000F06A
:1004B00005F8101EA2F10102F7D100BD0349086042
:1004C00000BF024909680029FBD1704714000020D1
:1004D0002DE9F041024600250026002000230024DB
:1004E000002791F803C00CF00F0591F803C00CF041
:1004F000100CBCF1000F03D091F802C04CEA0505C6
:1005000091F800C0BCF1000F31D0146800202BE03E
:100510004FF0010C0CFA00F3B1F800C00CEA03062E
:100520009E4220D183004FF00F0C0CFA03F7BC431E
:1005300005FA03FC4CEA040491F803C0BCF1280F4F
:1005400006D14FF0010C0CFA00FCC2F814C00AE00E
:1005500091F803C0BCF1480F05D14FF0010C0CFA23
:1005600000FCC2F810C0401C0828D1D31460B1F8B8
:1005700000C0BCF1FF0F34DD546800202EE000F114
:10058000080C4FF0010808FA0CF3B1F800C00CEAAF
:1005900003069E4221D183004FF00F0C0CFA03F7A3
:1005A000BC4305FA03FC4CEA040491F803C0BCF117
:1005B000280F05D100F1080C08FA0CF8C2F81480D5
:1005C00091F803C0BCF1480F07D100F1080C4FF0BF
:1005D000010808FA0CF8C2F81080401C0828CED395
:1005E0005460BDE8F08108B54FF4C06000F048F8F1
:1005F00024208DF8000000208DF8010001208DF8E6
:1006000002008DF80300684600F002F808BD000003
:1006100070B5002100230F22C47804B3154C246860
:1006200004F4E064C4F5E064210AC1F10403CA40A3
:10063000447804FA03F184781440214309010E4CF4
:100640000678A155047804F01F050124AC40057814
:100650006D11AD0005F1E025C5F8004109E0047811
:1006600004F01F050124AC40044D0678761145F8CE
:10067000264070BD0CED00E000E400E080E100E009
:1006800002490143024A1160704700000000FA0568
:100690000CED00E029B1064AD2690243044BDA614D
:1006A00004E0034AD2698243014BDA6170470000DB
:1006B0000010024029B1064A92690243044B9A6134
:1006C00004E0034A92698243014B9A61704700003B
:1006D0000010024010B57121094800F023F820B144
:1006E00008480078401C074908706021044800F061
:1006F00019F820B104480078401C0349087010BD67
:1007000000380040100000201100002021B10288B4
:1007100042F04002028004E002884FF6BF731A40A4
:1007200002807047F0B50246002000240023002517
:1007300001F00F070126BE40B4B20B1101269E4006
:10074000B3B2968806EA03051689264016B10DB1A4
:10075000012000E00020F0BD8181704710B500222B
:10076000028802F441520B884C8823438C8823432F
:10077000CC8823430C8923434C8923438C8923430E
:10078000CC8923431A430280838B4FF2FF742340AA
:1007900083830B8A038210BD4FF4805001490860A7
:1007A00070470000100C01404FF480500149086070
:1007B00070470000140C014000B587B00121880388
:1007C000FFF768FF2820ADF814000020ADF81000F6
:1007D000ADF80E00ADF80C00ADF80800ADF816004D
:1007E0004FF48270ADF80A004FF40070ADF81200BB
:1007F0000720ADF8180002A91548FFF7AFFF012147
:100800001348FFF783FF01210820FFF753FF4FF440
:100810006040ADF8040018208DF8070003208DF823
:10082000060001A90B48FFF753FE4FF48050ADF8C6
:10083000040010208DF8070003208DF8060001A9A0
:100840000448FFF745FEFFF7A7FF07B000BD000013
:1008500000380040000C014010B500F001F810BD58
:100860000CB50020019000903348006840F48030BF
:100870003149086000BF3048006800F40030009043
:100880000198401C0190009818B90198B0F5A06F2C
:10089000F1D12948006800F4003010B10120009027
:1008A00001E0002000900098012843D1234800680F
:1008B00040F01000214908600846006820F0070059
:1008C00008600846006840F0020008601A48406866
:1008D000194948600846406848600846406840F446
:1008E000806048600846406820F47C1048600846F4
:1008F000406840F4E81048600846006840F08070A6
:10090000086000BF0C48006800F000700028F9D0B3
:100910000948406820F003000749486008464068DD
:1009200040F00200486000BF0348406800F00C003F
:100930000828F9D10CBD0000001002400020024040
:100940000448006820B103480068401E014908605F
:10095000704700001400002010B500210020002284
:10096000214B5B6803F00C0121B1042906D0082952
:1009700028D107E01D4B1E4C236027E01B4B1C4C6D
:10098000236023E0184B5B6803F47010164B5B6820
:1009900003F48032022303EB904022B9154B43430A
:1009A000134C23600DE0104B5B6803F4003323B15C
:1009B000104B43430E4C236003E00C4B43430C4C61
:1009C000236003E0094B0A4C236000BF00BF064BC5
:1009D0005B68C3F30313084CE15C054B1B68CB4019
:1009E000034C236010BD00000010024000127A008A
:1009F0001800002000093D001C00002010B513481D
:100A0000006840F00100114908600846406810493C
:100A100008400E494860084600680E4908400B49E6
:100A200008600846006820F4802008600846406896
:100A300020F4FE0048604FF41F008860FFF70CFFB1
:100A40004FF000600449086010BD00000010024033
:100A50000000FFF8FFFFF6FE08ED00E008B5FFF725
:100A6000EFFCFFF7C0FDFFF7A7FE40F2E770009034
:100A70001EE0FFF799FE0FA11248009AFFF7A8FBAE
:100A8000104C07E014F8011B0F48FFF765FE0A2021
:100A9000FFF708FD20780028F4D14FF47A70FFF7B3
:100AA00001FDFFF779FE4FF47A70FFF7FBFC00BF02
:100AB000DFE7000058696E206368616F2025640AD3
:100AC000000000000100002000380040EC0A00088F
:100AD000000000202C00000028010008180B00086E
:100AE0002C00002064060000440100080068656CCA
:100AF0006C6F20776F726C640D0A000000000000BC
:100B00000000000000A24A040000000000000000F5
:080B10000102030406070809B5
:04000005080000ED02
:00000001FF
