:020000040800F2
:1000000060070020890100089101000893010008A1
:100010009501000897010008990100080000000000
:100020000000000000000000000000009B0100082C
:100030009D010008000000009F010008A1010008C8
:10004000A3010008A3010008A3010008A301000800
:10005000A3010008A3010008A3010008A3010008F0
:10006000A3010008A3010008A3010008A3010008E0
:10007000A3010008A3010008A3010008A3010008D0
:10008000A3010008A3010008A3010008A3010008C0
:10009000A3010008A3010008A3010008A3010008B0
:1000A000A3010008A3010008A3010008A3010008A0
:1000B000A3010008A3010008A3010008A301000890
:1000C000A3010008A3010008A3010008A301000880
:1000D000390A0008A3010008A3010008A3010008D1
:1000E000A3010008A3010008A301000800F002F822
:1000F00000F03AF80AA090E8000C82448344AAF188
:100100000107DA4501D100F02FF8AFF2090EBAE885
:100110000F0013F0010F18BFFB1A43F0010318473B
:100120005012000070120000103A24BF78C878C145
:10013000FAD8520724BF30C830C144BF04680C60ED
:10014000704700000023002400250026103A28BF35
:1001500078C1FBD8520728BF30C148BF0B60704739
:100160001FB51FBD10B510BD00F031F81146FFF7E7
:10017000F7FF01F0B1F800F04FF803B4FFF7F2FF1A
:1001800003BC00F057F800000948804709480047C1
:10019000FEE7FEE7FEE7FEE7FEE7FEE7FEE7FEE737
:1001A000FEE7FEE704480549054A064B7047000094
:1001B000410D0008ED0000086001002060070020EC
:1001C0006003002060030020704770477047754649
:1001D00000F02CF8AE4605006946534620F00700B3
:1001E000854618B020B5FFF7DDFFBDE820404FF091
:1001F00000064FF000074FF000084FF0000B21F011
:100200000701AC46ACE8C009ACE8C009ACE8C009DD
:10021000ACE8C0098D46704710B50446AFF30080C6
:100220002046BDE81040FFF7A8BF00000048704717
:10023000FC00002001491820ABBEFEE726000200AA
:10024000704710B500F010FE10BD10B5044604E074
:100250004FF47A7000F004F8641E002CF8D110BD41
:1002600010B504460021054800F0A9FD00BF034871
:1002700000F0A2FDA042FAD310BD0000000400402F
:100280002DE9F0410246002500260020002300242D
:10029000002791F803C00CF00F0591F803C00CF093
:1002A000100CBCF1000F03D091F802C04CEA050518
:1002B00091F800C0BCF1000F31D0146800202BE091
:1002C0004FF0010C0CFA00F3B1F800C00CEA030681
:1002D0009E4220D183004FF00F0C0CFA03F7BC4371
:1002E00005FA03FC4CEA040491F803C0BCF1280FA2
:1002F00006D14FF0010C0CFA00FCC2F814C00AE061
:1003000091F803C0BCF1480F05D14FF0010C0CFA75
:1003100000FCC2F810C0401C0828D1D31460B1F80A
:1003200000C0BCF1FF0F34DD546800202EE000F166
:10033000080C4FF0010808FA0CF3B1F800C00CEA01
:1003400003069E4221D183004FF00F0C0CFA03F7F5
:10035000BC4305FA03FC4CEA040491F803C0BCF169
:10036000280F05D100F1080C08FA0CF8C2F8148027
:1003700091F803C0BCF1480F07D100F1080C4FF011
:10038000010808FA0CF8C2F81080401C0828CED3E7
:100390005460BDE8F08141617047016170474FF6DC
:1003A000FF710180022181700421C170704721B169
:1003B000028842F48062028004E002884FF6FF3334
:1003C0001A400280704770B50246002400250023C1
:1003D0000020958A138B1B0445EA030626F07F4410
:1003E00004EA01068E4201D1012000E0002070BD28
:1003F00021B1028842F00102028004E002884FF637
:10040000FE731A400280704721B1028842F4807264
:10041000028004E002884FF6FF631A4002807047B2
:1004200021B1028842F40072028004E002884FF693
:10043000FF531A40028070470CB50246002000238B
:100440000193009300920B0F019321F07F41019BD8
:100450001BB1009B1433009303E0090C009B18337D
:100460000093009B1B680B400BB1012000E00020B3
:100470000CBD00002DE9F04385B004460D46002672
:10048000B1460427DFF8CC80A6884FF6C07006403E
:10049000684600F067FADDF808802F48B8FBF0F0F6
:1004A0001FFA80F946EA0906A68020884FF6FE71F9
:1004B0000840208000262949286888420CD82868EE
:1004C0004000B8FBF0F087B2042F00DA04273E4367
:1004D00009F10100208427E0E8884BF6FF7188428B
:1004E00006D1286800EB4000B8FBF0F087B209E0C5
:1004F000286800EBC00101EB0010B8FBF0F087B2F8
:1005000047F48047C7F30B0008B947F0010747F4E9
:10051000004006434FF4967009FB00F04FF47A71E7
:1005200090FBF1F0401C2084A683208840F001005D
:10053000208026884FF6F5300640A8886989084350
:1005400006432680A88929890843208105B0BDE893
:10055000F083000000127A0040420F00A0860100E4
:1005600010B504461CB101200449C87002E0002007
:100570000249C87000F00AF810BD00000300002016
:1005800010B5012000F076F810BD000010B5002471
:100590000EE00B4800784010094908700948005DDA
:1005A00020B10846007840F080000870601CC4B29A
:1005B000082CEEDB012202494E2000F0E5F810BDC8
:1005C0000B0000200300002010B53220FFF73DFE95
:1005D00000F036F9002404E000201B490855601C97
:1005E000C4B2082CF8DBFFF7D1FF002016490870D1
:1005F000FFF7CCFF002014494870FFF7C7FF032026
:1006000000F050F80520FFF720FE032000F04AF824
:100610000120FFF71AFE032000F044F80120FFF745
:1006200014FE022000F03EF80120FFF70EFE282005
:1006300000F020F80C2000F01DF80E2000F01AF851
:10064000012000F017F810BD0300002010B5C020F5
:1006500000F010F810BD10B5044607E0207820B176
:1006600014F8010B00F0D4F800E000E0F6E700BF5A
:1006700010BD000010B5044600F094F800200849B1
:100680000870FFF783FF002005494870FFF77EFFE1
:10069000201100F007F8204600F004F810BD00001B
:1006A0000300002010B5044604F0080018B1012032
:1006B0001749C87102E000201549C87104F0040010
:1006C00018B101201249887102E000201049887198
:1006D00004F0020018B101200D49487102E0002029
:1006E0000B49487104F0010018B101200849087154
:1006F00002E0002006490871012005498870FFF7D3
:1007000045FF002002498870FFF740FF10BD000040
:1007100003000020B1F5006F04D1028842F40062AA
:10072000028004E002884FF2FF731A400280704793
:1007300070B504460D461646234632462946024801
:1007400000F038FC70BD0000005400400146088AEB
:10075000C0B2704712B141F0010102E04FF6FE73E2
:100760001940018270470182704741F2883101606F
:10077000002181804BF6FF71C18000210181418100
:100780004FF480418181704770B504460D4616468E
:10079000234632462946024800F010FD70BD000095
:1007A0000054004008B5012018490871487188714B
:1007B000C871FFF7EBFE002014490870FFF7E6FE52
:1007C000012012494870FFF7E1FE00BF01200F49E8
:1007D0008870FFF7DBFE012269464F20FFF7A8FF74
:1007E00000200A498870FFF7D1FE01200749887070
:1007F000FFF7CCFE002005498870FFF7C7FE9DF883
:10080000000000F008000028E0D108BD030000202F
:1008100010B50446FFF7C6FF012008490870FFF72E
:10082000B5FE002005494870FFF7B0FE2011FFF724
:1008300039FF2046FFF736FF10BD000003000020FF
:1008400010B500220249034800F04CFB10BD000027
:10085000A08601000054004008B54FF4C06000F0CD
:1008600047F824208DF8000000208DF801000120B9
:100870008DF802008DF80300684600F001F808BD0D
:1008800070B5002100230F22C47804B3154C2468EE
:1008900004F4E064C4F5E064210AC1F10403CA4031
:1008A000447804FA03F184781440214309010E4C82
:1008B0000678A155047804F01F050124AC400578A2
:1008C0006D11AD0005F1E025C5F8004109E004789F
:1008D00004F01F050124AC40044D0678761145F85C
:1008E000264070BD0CED00E000E400E080E100E097
:1008F00002490143024A1160704700000000FA05F6
:100900000CED00E029B1064AD2690243044BDA61DA
:1009100004E0034AD2698243014BDA617047000068
:100920000010024029B1064A12690243044B1A61C1
:1009300004E0034A12698243014B1A6170470000C8
:100940000010024029B1064A92690243044B9A61A1
:1009500004E0034A92698243014B9A6170470000A8
:100960000010024030B500210022002400232D4D4C
:100970006D6805F00C0121B1042905D0082923D1A7
:1009800005E0294D056022E0274D05601FE0254D5B
:100990006D6805F47012234D6D6805F480340225EE
:1009A00005EB92421CB9214D554305600BE01D4DEE
:1009B0006D6805F400351DB11C4D5543056002E01E
:1009C000194D5543056002E0174D056000BF00BF9B
:1009D000144D6D6805F0F0010909154D6B5C056853
:1009E000DD4045600F4D6D6805F4E061090A104D6A
:1009F0006B5C4568DD4085600A4D6D6805F46051AB
:100A0000C90A0B4D6B5C4568DD40C560054D6D68DE
:100A100005F44041890B074D6B5CC568B5FBF3F5E8
:100A2000056130BD0010024000127A0000093D004F
:100A30000C0000201C00002010B571211B4800F0A4
:100A40004DF820B11A480078401C194908706021FF
:100A5000164800F043F838B3144800F069F8C4B2FF
:100A600014481549097844541448134909784454E2
:100A700011480078401C1049087008460078401E54
:100A80000C49085C0A2803D00B48007863280AD177
:100A900000200949087001200949087000226021DE
:100AA000024800F035F800BF10BD000000380040DB
:100AB00002000020340000200100002098000020E7
:100AC0000000002021B1028842F04002028004E0D0
:100AD00002884FF6BF731A4002807047F0B5024695
:100AE000002000240023002501F00F070126BE404E
:100AF000B4B20B1101269E40B3B2968806EA0305F4
:100B00001689264016B10DB1012000E00020F0BD8D
:100B100030B5002400230C110125A540ABB21AB159
:100B200085881D43858002E085889D43858030BD92
:100B300001468889704710B50022028802F44152AC
:100B40000B884C8823438C882343CC8823430C890F
:100B500023434C8923438C892343CC8923431A4361
:100B60000280838B4FF2FF74234083830B8A0382BE
:100B700010BD000000B587B001218803FFF7C2FE59
:100B80002820ADF814000020ADF81000ADF80E00DC
:100B9000ADF80C00ADF80800ADF81600ADF80A008D
:100BA0004FF40070ADF812000720ADF8180002A94C
:100BB0002648FFF7C0FF01212448FFF783FF0122E9
:100BC00060212248FFF7A4FF01210820FFF7BAFEA9
:100BD0004FF42040ADF8040004208DF807000320F6
:100BE0008DF8060001A91A48FFF74AFB4FF4804030
:100BF000ADF8040018208DF8070003208DF80600DA
:100C000001A91348FFF73CFB4FF48050ADF80400F6
:100C100028208DF8070003208DF8060001A90C4854
:100C2000FFF72EFB01211020FFF78CFE4FF4005040
:100C3000ADF8040010208DF8070003208DF80600A1
:100C400001A90448FFF71CFB07B000BD00380040B5
:100C5000000C01400010014010B500F001F810BD7B
:100C60000CB50020019000903348006840F48030BB
:100C70003149086000BF3048006800F4003000903F
:100C80000198401C0190009818B90198B0F5A06F28
:100C9000F1D12948006800F4003010B10120009023
:100CA00001E0002000900098012843D1234800680B
:100CB00040F01000214908600846006820F0070055
:100CC00008600846006840F0020008601A48406862
:100CD000194948600846406848600846406840F442
:100CE000806048600846406820F47C1048600846F0
:100CF000406840F4E81048600846006840F08070A2
:100D0000086000BF0C48006800F000700028F9D0AF
:100D10000948406820F003000749486008464068D9
:100D200040F00200486000BF0348406800F00C003B
:100D30000828F9D10CBD000000100240002002403C
:100D400010B51348006840F00100114908600846DA
:100D50004068104908400E494860084600680E493E
:100D600008400B4908600846006820F480200860AD
:100D70000846406820F4FE0048604FF41F00886079
:100D8000FFF76AFF4FF000600449086010BD0000E3
:100D9000001002400000FFF8FFFFF6FE08ED00E043
:100DA00021B1028842F00102028004E002884FF67D
:100DB000FE731A40028070470146888C7047818418
:100DC00070470000002202881D4B98420ED01D4B38
:100DD00098420BD0B0F1804F08D01B4B984205D001
:100DE0001A4B984202D01A4B984204D14FF68F7397
:100DF0001A404B881A43174B984207D0164B98421B
:100E000004D04FF6FF431A40CB881A4302808B88E8
:100E100083850B8803850A4B98420BD0094B984277
:100E200008D00E4B984205D00D4B984202D00D4B86
:100E3000984201D10B7A0386012383827047000018
:100E4000002C014000340140000400400008004034
:100E5000000C004000100040001400400040014021
:100E600000440140004801403EB500240121022019
:100E7000FFF748FD0D4800680D49B0FBF1F0401E3A
:100E800084B24FF6FF70ADF80400ADF800400020CA
:100E9000ADF80600ADF8020069460648FFF792FF7C
:100EA00001210448FFF77CFF3EBD00002000002028
:100EB00040420F000004004008B501211020FFF758
:100EC00041FD10208DF8030003208DF802004FF43F
:100ED0000050ADF8000069460148FFF7D1F908BDA0
:100EE0000010014070B586B006460C46154601213B
:100EF0000820FFF727FD05A8FFF751FA2B48864287
:100F00001AD101214805FFF7FDFCC020ADF81400FF
:100F100003208DF816001C208DF8170005A9244821
:100F2000FFF7AEF901214805FFF7FCFC00214FF463
:100F30000010FFF7F7FC1AE001218805FFF7E2FC3B
:100F40004FF44060ADF8140003208DF816001C200B
:100F50008DF8170005A91648FFF792F901218805B9
:100F6000FFF7E0FC00214FF48000FFF7DBFC01A855
:100F7000FFF7FBFB0020ADF808004BF6FF70ADF863
:100F80000A00A8B2ADF80C004FF48060ADF80E0076
:100F90000001ADF81000019401A93046FFF76AFA8C
:100FA00001213046FFF724FA06B070BD005400401E
:100FB000000C0140F8B505460C4616461F460020B9
:100FC00000900EB90120F8BD4FF6FF70009004E0CC
:100FD0000098411E009100B9EAE04FF40031284624
:100FE000FFF72AFA0028F3D101212846FFF7DFF99D
:100FF0004FF2FF712846FFF78DFB01212846FFF7CE
:1010000003FA4FF6FF70009004E00098411E009133
:1010100000B9CDE067492846FFF7D5F90028F4D09C
:10102000012239462846FFF795FB4FF6FF700090E6
:1010300004E00098411E009100B9B9E05E492846DD
:10104000FFF7FAF90028F4D0012E20D1002128461C
:10105000FFF7ADF972B6288B01212846FFF7E0F9BA
:1010600062B64FF6FF70009004E00098411E0091B8
:1010700000B99DE050493E312846FFF7DDF90028D0
:10108000F3D02846FFF762FB04F8010B7EE0022E46
:1010900027D1B1022846FFF73DFB72B6288B00210D
:1010A0002846FFF784F962B64FF6FF70009004E01F
:1010B0000098411E009100B97AE03F49891C2846FA
:1010C000FFF7BAF90028F3D072B601212846FFF7DE
:1010D000A7F9288A04F8010B62B6288A04F8010BE4
:1010E00054E0288B14E04FF6FF70009004E0009865
:1010F000411E009100B95BE02F49891C2846FFF78B
:101100009BF90028F3D02846FFF720FB04F8010BD9
:101110003046761E0328E6D14FF6FF70009004E0BB
:101120000098411E009100B942E02349891C2846DD
:10113000FFF782F90028F3D000212846FFF737F99E
:1011400072B62846FFF702FB04F8010B012128467E
:10115000FFF766F962B62846FFF7F8FA04F8010BC4
:101160004FF6FF70009004E00098411E009100B916
:101170001EE010493F312846FFF725F90028F3D03B
:101180002846FFF7E3FA04F8010B00264FF6FF703C
:10119000009004E00098411E009100B908E0064963
:1011A0000E312846FFF748F90028F3D101200AE75D
:1011B000002008E70100030002000010F8B5074610
:1011C0000C4615461E4600200090002D77D04FF6A5
:1011D000FF70009004E00098411E009100B970E09B
:1011E0004FF400313846FFF727F90028F3D10121E9
:1011F0003846FFF709F94FF6FF70009004E00098B9
:10120000411E009100B95CE02F493846FFF7DBF83A
:101210000028F4D0002231463846FFF79BFA4FF6FB
:10122000FF70009004E00098411E009100B948E072
:1012300026493846FFF7C7F80028F4D014F8011BF8
:101240003846FFF790FA13E04FF6FF70009004E085
:101250000098411E009100B933E01D493846FFF760
:10126000EBF80028F4D014F8011B3846FFF77BFA9E
:10127000681E051EE8D14FF6FF70009004E000984C
:10128000411E009100B91CE011493846FFF7D4F81F
:101290000028F4D001213846FFF7C2F84FF6FF705E
:1012A000009005E00098411E009108B909E006E0B1
:1012B00007490C310748FFF7BFF80028F2D1012099
:1012C000F8BD0020FCE700000100030082000700D9
:1012D00004000010005400400024FFF7EDFDFEF76D
:1012E000B0FFFFF7B9FAFFF745FCFFF76DF9FFF71D
:1012F00047F90120FFF734F924E084B10024FFF717
:101300003FF911A0FFF7A7F9FFF7A0F910A0FFF729
:10131000A2F94FF400511148FFF73DF80EE0012407
:10132000FFF72EF90EA0FFF796F9FFF78FF90F4898
:10133000FFF791F961030948FFF72FF84FF4FA60BE
:10134000FEF783FFD9E700004E686F6D20000000B4
:1013500044652074616920340000000000100140E1
:1013600042616E2074696E3A00000000980000200F
:10137000901300080000002034000000280100083D
:10138000C4130008340000202C07000044010008AA
:10139000000000000000000000000000000000004D
:1013A00001020304010203040607080902040608F7
:1013B00000A24A0400000000000000000102030433
:0413C000060708090B
:04000005080000ED02
:00000001FF
